:100000000C949F000C940B050C94E4040C94C70012
:100010000C94C7000C94C7000C9442120C94C700B7
:100020000C94C7000C94C7000C94C7000C94C70034
:100030000C94C7000C94C7000C94C7000C94C70024
:100040000C949A040C94C7000C9458050C94320537
:100050000C94C7000C94C7000C94C7000C94C70004
:100060000C94C7000C94C70052544F532052656142
:10007000647900000000002300260029000A5B4389
:10008000726F7373696E67205265717565737465FD
:10009000645D00207C2043726F7373696E67733AEE
:1000A0002000434F4F4C444F574E005045445F573C
:1000B00041524E494E47005045445F43524F5353BF
:1000C000494E47004341525F59454C4C4F570043FE
:1000D00041525F475245454E00207C205374617465
:1000E000653A20005469636B733A200000000000F9
:1000F000240027002A0000000000250028002B0013
:1001000004040404040404040202020202020303BD
:1001100003030303010204081020408001020408C5
:100120001020010204081020000000080002010055
:100130000003040700000000000000005513112414
:100140001FBECFEFD8E0DEBFCDBF11E0A0E0B1E031
:10015000E2ECF9E202C005900D92A633B107D9F79F
:1001600022E0A6E3B1E001C01D92AD36B207E1F78F
:1001700010E0CFE9D0E004C02197FE010E94C9142D
:10018000CE39D107C9F70E9445120C94DF140C94A4
:100190000000833081F028F4813099F08230A9F09A
:1001A00008958730A9F08830C9F08430B1F4809187
:1001B00080008F7D03C0809180008F7780938000C6
:1001C000089584B58F7784BD089584B58F7DFBCF66
:1001D0008091B0008F778093B00008958091B00037
:1001E0008F7DF9CF1F93CF93DF93282F30E0F90154
:1001F000E85DFE4F8491F901EC5EFE4FD491F90168
:10020000E050FF4FC491CC23A9F0162F81110E941A
:10021000C900EC2FF0E0EE0FFF1FEA50FF4FA59151
:10022000B4918FB7F894EC91111108C0D095DE23EA
:10023000DC938FBFDF91CF911F910895DE2BF8CF14
:10024000CF93DF9390E0FC01EC5EFE4F2491805051
:100250009F4FFC0184918823D1F090E0880F991F73
:10026000FC01E451FF4FA591B491FC01EA50FF4F0E
:10027000C591D491623071F49FB7F8943C91822F6C
:10028000809583238C93E8812E2B28839FBFDF9159
:10029000CF9108958FB7F894EC912E2B2C938FBFAC
:1002A000F6CF0895AF92BF92CF92DF92EF92FF9276
:1002B0000F931F93CF93DF936C017B018B01040F8E
:1002C000151FEB015E01AE18BF08C017D10759F02A
:1002D0006991D601ED91FC910190F081E02DC6016C
:1002E0000995892B79F7C501DF91CF911F910F9166
:1002F000FF90EF90DF90CF90BF90AF900895FC01FA
:10030000538D448D252F30E0842F90E0821B930B7A
:10031000541710F0CF96089501970895FC01918D20
:10032000828D981761F0A28DAE0FBF2FB11D5D9623
:100330008C91928D9F5F9F73928F90E008958FEFC5
:100340009FEF0895FC01918D828D981731F0828D79
:10035000E80FF11D858D90E008958FEF9FEF0895D0
:10036000FC01918D228D892F90E0805C9F4F821B34
:1003700091098F73992708958CEC91E00E94B00148
:1003800021E0892B09F420E0822F08950E94BC010E
:1003900081110C940000089580E090E0892B11F009
:1003A0000C94C6010895FC01A48DA80FB92FB11DAE
:1003B000A35ABF4F2C91848D90E001968F7399279B
:1003C000848FA689B7892C93A089B1898C91837079
:1003D00080648C93938D848D981306C00288F38972
:1003E000E02D80818F7D80830895EF92FF920F939F
:1003F0001F93CF93DF93EC0181E0888F9B8D8C8DD1
:1004000098131AC0E889F989808185FF15C09FB7C4
:10041000F894EE89FF896083E889F9898081837087
:10042000806480839FBF81E090E0DF91CF911F9136
:100430000F91FF90EF900895F62E0B8D10E00F5F57
:100440001F4F0F731127E02E8C8D8E110CC00FB62D
:1004500007FCFACFE889F989808185FFF5CFCE01C5
:100460000E94D301F1CFEB8DEC0FFD2FF11DE35A6C
:10047000FF4FF0829FB7F8940B8FEA89FB89808148
:100480008062CFCF0F931F93CF93DF938C01D0E087
:10049000C0E0F801EC0FFD1F6491662341F08CEC85
:1004A00091E00E94F501892B11F02196F2CFCE0147
:1004B000DF91CF911F910F910895CF93DF93EC01BE
:1004C000888D8823B9F0AA89BB89E889F9898C913C
:1004D00085FD03C0808186FD0DC00FB607FCF7CFF8
:1004E0008C9185FFF2CF808185FFEDCFCE010E94F8
:1004F000D301E9CFDF91CF910895FC010190002055
:10050000E9F73197AF01481B590BBC018CEC91E026
:100510000C9452018F929F92AF92BF920F931F93B0
:10052000CF93DF93CDB7DEB7A1970FB6F894DEBFB8
:100530000FBECDBF19A2423008F44AE08E010F5D14
:100540001F4F842E912CB12CA12CA50194010E9447
:10055000A714E62FB901CA01EA30F4F4E05DD8012E
:10056000EE938D01232B242B252B79F790E080E04F
:10057000109719F0CD010E947D02A1960FB6F89454
:10058000DEBF0FBECDBFDF91CF911F910F91BF9006
:10059000AF909F908F900895E95CE1CF8AEB90E057
:1005A0000E94200B84EE90E00E9442020E947A0694
:1005B000BC0190E080E04AE00E948A0289ED90E070
:1005C0000E94420280913E0190913F01823091054C
:1005D00049F1C0F40097F1F0019709F183E990E047
:1005E0000E94420260913A0170913B0180913C016E
:1005F00090913D014AE00E948A028DE191E00E94C3
:100600007D02CCCF8330910581F0049739F782EADF
:1006100090E002C08FEC90E00E944202DFCF84ECB9
:1006200090E0FACF87EB90E0F7CF8BEA90E0F4CF41
:1006300001E010E092E0E92EF12C23E0C22ED12C53
:1006400030E3432E31E0532E4CE1642E41E0742E12
:1006500058E0A52E51E0B52E64E0862E912C6FEF68
:100660007FEF80913801909139010E94320B8130E7
:10067000B1F78DE790E00E9442028DE191E00E9487
:100680007D0210933F0100933E0160E08AE00E94EA
:10069000F20061E08BE00E94F20088EF90E00E949F
:1006A000200B60E08BE00E94F20061E08CE00E9491
:1006B000F2008AEB90E00E94200BF0923F01E09262
:1006C0003E0160E089E00E94F20061E088E00E9463
:1006D000F20080913A0190913B01A0913C01B091D0
:1006E0003D010196A11DB11D80933A0190933B01FC
:1006F000A0933C01B0933D0182EB91E00E94200B5E
:10070000D0923F01C0923E01C8E0D0E0F201849156
:10071000F3013490F501249070E060E0222099F01C
:1007200081110E94C900E22DF0E0EE0FFF1FED588D
:10073000FF4FA591B4918C91382291E080E009F4AB
:1007400090E0692F782FF1E06F2788E00E94F20097
:100750008EE390E00E94200B2197C1F660E088E0D4
:100760000E94F20061E089E00E94F2008AEB90E0D2
:100770000E94200B90923F0180923E0160E08CE04D
:100780000E94F20061E08AE00E94F20084E791E0BA
:100790000E94200B10923F0110923E0170E060E039
:1007A00080913801909139010E94320B8130B1F370
:1007B00056CFE0913801F0913901928D838D9817D1
:1007C000C0F4868D9F5F928F8F3F51F4818988237B
:1007D00081F0CF0141960E94D505811108C008958E
:1007E0009091CB01891728F48F5F868F08950E941E
:1007F000940808950F931F93CF93DF93E091DC014A
:10080000F091DD0182E08083E091D801F091D9017F
:100810001082E091DA01F091DB018FEC808310927D
:10082000E401E091E001F091E10186E08083E09154
:10083000DE01F091DF01808180618083E091DE0143
:10084000F091DF01808188608083E091DE01F0918A
:10085000DF01808180688083E091DE01F091DF011B
:1008600080818F7D808361E08CE00E94200161E0C7
:100870008BE00E94200161E08AE00E94200161E09B
:1008800089E00E94200161E088E00E94200162E08E
:1008900082E00E94200161E08AE00E94F20061E0B3
:1008A00089E00E94F2008FE190E00E94FC10EC01D0
:1008B000009741F09983888381E08B8F1C8ECE0155
:1008C0000E946408D0933901C0933801CD2B69F19F
:1008D00010E000E022E044E650E060E271E088E1F0
:1008E00093E00E941A1121E046E950E065E271E0D0
:1008F0008EEC92E00E941A1189ED93E09093010131
:1009000080930001809169008C7F826080936900F0
:10091000E89A88E690E00E9442028DE191E0DF9142
:10092000CF911F910F910C947D02DF91CF911F9178
:100930000F9108951F920F920FB60F9211242F93CB
:100940003F938F939F93AF93BF9380916D0190914D
:100950006E01A0916F01B091700130916C0123E0A4
:10096000230F2D3758F50196A11DB11D20936C0161
:1009700080936D0190936E01A0936F01B09370010D
:100980008091680190916901A0916A01B0916B0119
:100990000196A11DB11D8093680190936901A093F8
:1009A0006A01B0936B01BF91AF919F918F913F917D
:1009B0002F910F900FBE0F901F90189526E8230FD0
:1009C0000296A11DB11DD2CF1F920F920FB60F92AA
:1009D00011242F933F934F935F936F937F938F9344
:1009E0009F93AF93BF93EF93FF93E0910201F09138
:1009F00003010995FF91EF91BF91AF919F918F9165
:100A00007F916F915F914F913F912F910F900FBE0A
:100A10000F901F9018951F920F920FB60F921124EE
:100A20002F933F934F935F936F937F938F939F93F6
:100A3000AF93BF93EF93FF93E0910001F091010119
:100A40000995FF91EF91BF91AF919F918F917F9108
:100A50006F915F914F913F912F910F900FBE0F902B
:100A60001F9018951F920F920FB60F9211242F937B
:100A70003F934F935F936F937F938F939F93AF9326
:100A8000BF93EF93FF938CEC91E00E94D301FF9111
:100A9000EF91BF91AF919F918F917F916F915F91F6
:100AA0004F913F912F910F900FBE0F901F9018956F
:100AB0001F920F920FB60F9211242F938F939F9333
:100AC000EF93FF93E091DC01F091DD018081E091F3
:100AD000E201F091E30182FD1BC090818091E5016C
:100AE0008F5F8F732091E601821741F0E091E5015D
:100AF000F0E0E453FE4F958F8093E501FF91EF9175
:100B00009F918F912F910F900FBE0F901F9018956E
:100B10008081F4CFE0917301F091740180818111A3
:100B200007C08FEF9FEF9093670180936601089550
:100B3000E0917301F09174010580F681E02D8081D0
:100B40009181F1CFFC01DB010FB6F8940F92409137
:100B50006401509165012D913C9111972F3F32070F
:100B600011F181819281609147017081761749F07E
:100B70004817590730F01D921C9281E00F900FBE6C
:100B80000895481B590B42175307A8F7241B350B30
:100B90002D933C93809147018083809164019091D3
:100BA00065019283818380E0E9CFCF93DF93DC01FD
:100BB0001596ED91FC910680F781E02DA489B58909
:100BC0008685978520893189EC013D832C83C089F6
:100BD000D1899B838A83CF010C9611962D913C91EC
:100BE00012972817390721F41296DC93CE931197A8
:100BF000158A148A2C9121502C93209143012111A4
:100C000057C0A285B3858481958126813781EC0107
:100C10003D832C83C681D7819B838A83CF01029633
:100C200011962D913C9112972817390721F41296AD
:100C3000DC93CE931197138612862C9121502C931E
:100C4000C6892091C6012C1710F4C093C60129E073
:100C50002C9FE0011124CE55DE4F0980DA81C02D92
:100C6000D583C4834C815D8157834683AC81BD812C
:100C700013969C938E9312979D838C83A689A29F33
:100C8000D0011124AE55BE4FB387A2878C918F5FE0
:100C90008C93A091C901B091CA01968956968C9106
:100CA000891730F581E080934201DF91CF9108955B
:100CB000A0918801B0918901B787A68714962D91DC
:100CC0003C911597318B208B1496CD91DC91159723
:100CD0009B838A8315969C938E93149787E891E063
:100CE000958B848B809187018F5F80938701D1CF13
:100CF00080E0DBCF0FB6F8940F9280916401909161
:100D000065010F900FBE0895809143018F5F80931E
:100D1000430108950FB6F8940F92FC01928D0F9045
:100D20000FBE81E0911180E00895EF92FF920F9342
:100D30001F93CF93DF93EC010FB6F8940F921E8DA3
:100D40007C0181E1E80EF11C01E01116D4F08FEF77
:100D50008E8F0F900FBE0FB6F8940F921D8D7E01EF
:100D600088E0E80EF11C01E01116B4F08FEF8D8FD2
:100D70000F900FBEDF91CF911F910F91FF90EF90D9
:100D800008958989882319F3C7010E94D505811127
:100D9000009342011150D9CF8885882339F3C701C8
:100DA0000E94D5058111009342011150DDCFCF93F0
:100DB000DF93FC01A085B1858281938124813581F7
:100DC000EC013D832C83C481D5819B838A8311965A
:100DD0008D919C9112978E179F0721F41296DC93A8
:100DE000CE931197118610868C9181508C93DF9150
:100DF000CF9108950F931F93CF93DF938C01FB0145
:100E000080819181D80113968F3F9807F1F4E80112
:100E1000AF81B88512968D919C91139793838283AD
:100E2000EC01FD83EC83B583A4831396FC93EE93CE
:100E3000129711870087F80180818F5F8083DF918F
:100E4000CF911F910F910895D90112962D913C9148
:100E50001397E9014881598184179507A8F7DACFDC
:100E6000FC0173836283918780874617570790F050
:100E7000421B530B8485958548175907C8F4BF0159
:100E80006E5F7F4F80914A0190914B010E94FA065C
:100E900080E008954217530718F46217730740F46F
:100EA000BF016E5F7F4F80914C0190914D01EECF5D
:100EB00081E00895EF92FF920F931F93CF93DF93FA
:100EC000EC018B017A016C857D85600F711F9801A3
:100ED000A701CE010E943007811107C0DF91CF9199
:100EE0001F910F91FF90EF9008958C859D85080FBD
:100EF000191FE889F989CE010995E5CFEF92FF9294
:100F00000F931F93CF93DF938C017B01E0914C01F2
:100F1000F0914D010580F681E02DC681D781CE018B
:100F200002960E94D7068A8982FF0FC0A701B801E6
:100F3000CE010E945A07E889F989CE01DF91CF914D
:100F40001F910F91FF90EF9009948E7F8A8BF3CFC2
:100F5000E0914C01F0914D01808181110DC0809193
:100F60004A0190914B0190934D0180934C01F09375
:100F70004B01E0934A0108950580F681E02D6FEF63
:100F80007FEF808191810E947E07E2CFBF92CF9256
:100F9000DF92EF92FF920F931F93CF93DF93EC01B9
:100FA000B62EC0906401D09065010091730110913C
:100FB0007401E0907101F09072018091C9019091EB
:100FC000CA0102960E94D706CF3FDC0709F042C053
:100FD000BB2009F43FC0E0917601F0917701A09128
:100FE000C901B091CA011596FC93EE931497A09194
:100FF000C901B091CA018481958117969C938E9303
:1010000016978091C9019091CA01A481B581029679
:1010100013969C938E9312978091C9019091CA0167
:10102000029695838483E091C901F091CA0185E716
:1010300091E093878287809175018F5F809375011E
:10104000DF91CF911F910F91FF90EF90DF90CF90A4
:10105000BF900895CC0DDD1DE091C901F091CA014A
:10106000D383C2836091C9017091CA016E5F7F4FC3
:10107000CC15DD0560F4C701DF91CF911F910F9171
:10108000FF90EF90DF90CF90BF900C94FA06C801CC
:101090000E94FA068091660190916701C817D907EE
:1010A00078F6D0936701C0936601CACFFC0103961E
:1010B000928381832FEF3FEF34832383968385834D
:1010C0009087878310820895CF93DF93EC010FB64A
:1010D000F8940F92888199812B8D4C8DBC01249FAF
:1010E000600D711D11247D836C831A8E9B838A830E
:1010F0002150330B429FB001439F700D1124860F86
:10110000971F9F838E838FEF8D8F8E8FCE010896D2
:101110000E945608CE0141960E9456080F900FBEBD
:1011200081E0DF91CF9108950F920FB6F8940F925E
:101130001F9211242F923F924F925F926F927F9253
:101140008F929F92AF92BF92CF92DF92EF92FF92D7
:101150000F931F932F933F934F935F936F937F93BF
:101160008F939F93AF93BF93CF93DF93EF93FF93AF
:10117000A091C901B091CA010DB60D920EB60D92A3
:1011800080914301882321F081E08093420161C076
:1011900010924201A091C901B091CA01E091C90128
:1011A000F091CA012D913C918789908D8217930708
:1011B000A8F08091C9019091CA018091C9019091D4
:1011C000CA01259A2D9A2FEF87EA91E62150804097
:1011D0009040E1F700C000001D9AF5CF2091C601B4
:1011E00089E001C02150422F50E0849FF001859F8B
:1011F000F00D1124EE55FE4F9081992399F3A181B2
:10120000B28112966D917C9172836183289FC00197
:1012100011248B559E4F6817790721F4858196819B
:101220009283818389E0849FF001859FF00D1124D2
:10123000EE55FE4F0180F281E02D868197819093DB
:10124000CA018093C9012093C6018091C901909180
:10125000CA01A091C901B091CA01CD91CDBFDD9164
:10126000DEBFFF91EF91DF91CF91BF91AF919F9141
:101270008F917F916F915F914F913F912F911F912E
:101280000F91FF90EF90DF90CF90BF90AF909F9025
:101290008F907F906F905F904F903F902F901F9016
:1012A0000F900FBE0F9008958F929F92BF92CF9292
:1012B000DF92EF92FF920F931F93CF93DF930FB6BE
:1012C000F8940F9280914301815080934301809163
:1012D0004301882379F080E00F900FBEDF91CF911A
:1012E0001F910F91FF90EF90DF90CF90BF909F9054
:1012F0008F9008958091CB01882369F3E0908C0151
:10130000F0908D01F0E0E0E039E041E0809187016C
:1013100081115EC0EF2B11F00E948A05E090400120
:10132000F0904101E114F10409F47DC189E0D82E67
:10133000CC24C3940FEF1FEF80914301811161C151
:10134000C0916401D09165014E018FEF881A980A0F
:10135000909265018092640181149104B9F48091A6
:101360007301909174012091710130917201309359
:1013700074012093730190937201809371018091A5
:1013800047018F5F809347010E948A058091660123
:1013900090916701B12C8816990608F026C1E0915A
:1013A000C901F091CA01E689DE9EF0011124EE55D3
:1013B000FE4F8081823010F0BB24B39480914201B3
:1013C000811103C0BB2009F425C1C092420122C192
:1013D000D7011696ED91FC91A489B589668577852C
:1013E00080899189EB019D838C8380899189EC01AF
:1013F0007B836A83BF01645F7F4F11960D911C91BF
:1014000012970617170721F412969C938E93119743
:10141000158A148A8C9181508C93A285B38584811E
:10142000958166817781EC017D836C83668177810C
:10143000EB019B838A83CF01029611960D911C913B
:1014400012970817190721F412967C936E9311973F
:10145000138612862C9121502C93A6892091C601C7
:101460002A1710F4A093C6013A9FD0011124AE555B
:10147000BE4F11960D90BC91A02DB583A4831496F8
:101480006D917C9115977783668314966D917C910D
:101490001597EB019B838A8315969C938E931497E3
:1014A0009689939FD0011124AE55BE4FB387A28772
:1014B0008C918F5F8C93A091C901B091CA0156960F
:1014C0008C91891708F022CF409342011FCFE09101
:1014D0007301F09174010580F681E02D0680F7819B
:1014E000E02D828193818816990628F490936701F4
:1014F0008093660154CFC285D385848195812681EE
:101500003781DC0115963C932E9314972681378101
:10151000D90113969C938E931297CF01029649811D
:101520005A814817590711F43A8329831386128682
:10153000288121502883A489B5891097F9F0268540
:10154000378540895189E9015D834C834089518900
:10155000EA013B832A8311966D917C9112979F013A
:10156000245F3F4F6217730721F412965C934E93EA
:101570001197158A148A2C9121502C93A6892091B9
:10158000C6012A1710F4A093C601DA9ED0011124D7
:10159000AE55BE4F11960D90BC91A02DB583A4837E
:1015A00014962D913C9115973783268314962D918F
:1015B0003C911597E9019B838A8315969C938E93A2
:1015C000149796899D9DD0011124AE55BE4FB387C7
:1015D000A2878C918F5F8C93E091C901F091CA0131
:1015E0008689891710F4BB24B394E0917301F091BC
:1015F0007401808181116BCF1093670100936601A4
:10160000CECE80914001909141010196909341018D
:1016100080934001D1E0ED1AF10809F08DCE1092CF
:1016200041011092400180914201882309F453CE78
:101630008091C9019091CA010E94940881E04CCE2A
:10164000CF93DF93EC010E94840660E0CE010E94FC
:10165000C6070E945409811102C00E949408DF91BC
:10166000CF9108957F928F929F92AF92BF92CF9227
:10167000DF92EF92FF920F931F93CF93DF9300D0EF
:1016800000D01F92CDB7DEB78C017D836C83D12C47
:1016900090E0580121E1A20EB11C89E0782E24E0EF
:1016A000822E912C0FB6F8940F92D8015A968C91F5
:1016B0005A978823C9F181505A968C935A978D91E5
:1016C0009C91892B71F4E091C901F091CA01309786
:1016D00019F082A58F5F82A7D8011596FC93EE932F
:1016E0001497F8018085882339F0C80108960E9474
:1016F000D50581110E9494080F900FBEDD24D3946C
:101700008D2D0F900F900F900F900F90DF91CF9134
:101710001F910F91FF90EF90DF90CF90BF90AF900F
:101720009F908F907F9008952C813D81232B21F4F1
:101730000F900FBED12CE4CF911109C080914701C9
:10174000898380916401909165019B838A830F90C6
:101750000FBE0E9484060FB6F8940F92D8015D96D2
:101760008C915D978F3F11F45D961C92F801868DE8
:101770008F3F09F4168E0F900FBEBE016C5F7F4F36
:10178000CE0101960E94A2058111B9C0C8010E9434
:101790008A06882309F4ADC0D8018D919C91892BCC
:1017A00009F078C00FB6F8940F92F801E480F58044
:1017B000E114F10409F49BC0D70156968C91569719
:1017C000E091C901F091CA019689891708F084C097
:1017D0001C962D913C911D9737FD0CC0E091C901DD
:1017E000F091CA0196899401291B31091D963C93F9
:1017F0002E931C97879DC00111248E559E4FF70193
:10180000228533852817390709F05EC06701F2E0A9
:10181000CF0ED11CC6010E94D706E091C901F091FC
:10182000CA01E689D7015696EC938091C6018E17BE
:1018300010F4E093C6017E9EF0011124EE55FE4F98
:101840000180F281E02DD7011596FC93EE93149759
:101850008481958117969C938E931697A481B58168
:101860001396DC92CE921297D582C482D7015696F7
:10187000EC915697E79DF0011124EE55FE4F1B9613
:10188000FC93EE931A9780818F5F8083DD24D3943D
:101890000F900FBEEC80FD806091C9017091CA016C
:1018A000645F7F4FC5010E94FA0661E0C7010E9494
:1018B000C607C8010E9495060E945409811102C002
:1018C0000E94940891E0EECEE091C901F091CA0126
:1018D0008689F701868BDACFE091C901F091CA01C0
:1018E000DD24D39499969C918689981788F2D12CFF
:1018F000CFCFC8010E9495060E945409E3CFC801CA
:101900000E9495060E945409C8010E948A068823F5
:10191000C9F2DD2009F4F4CE0FB6F8940F92F80165
:101920008189882309F47BC00688F789E02D90819E
:1019300084E0891BD80114960D911C9101151105A5
:1019400009F4F6CEF80191A5981708F4982FD8015C
:1019500056968C915697981709F4EACE9A962C9140
:101960009A97213009F0E4CE56969C9356971C9690
:101970002D913C911D9737FD08C024E030E0291BD4
:1019800031091D963C932E931C97B9E08B9FC001A3
:1019900011248E559E4FF80122853385281739076B
:1019A00009F0C6CE7801F2E0EF0EF11CC7010E94EB
:1019B000D706F801A6898091C6018A1710F4A09372
:1019C000C60189E08A9FD0011124AE55BE4F119601
:1019D0000D90BC91A02DF801B583A48314962D9190
:1019E0003C911597378326831496ED91FC911597BA
:1019F000F382E2821596FC92EE921497D8015696E5
:101A0000EC915697E89FF0011124EE55FE4F1B967E
:101A1000FC93EE931A9780818F5F808389CE80E05C
:101A200089CF0F920FB6F8940F921F9211242F9224
:101A30003F924F925F926F927F928F929F92AF925E
:101A4000BF92CF92DF92EF92FF920F931F932F934B
:101A50003F934F935F936F937F938F939F93AF9336
:101A6000BF93CF93DF93EF93FF93A091C901B09100
:101A7000CA010DB60D920EB60D9213BE80914301B0
:101A80008111F9C080916401909165010196909354
:101A9000650180936401009781F520917301309175
:101AA00074014091710150917201509374014093FF
:101AB00073013093720120937101209147012F5FD0
:101AC00020934701E0917301F0917401208121116D
:101AD00007C02FEF3FEF30936701209366010DC0E1
:101AE000E0917301F09174010580F681E02D208171
:101AF0003181309367012093660120916601309116
:101B000067018217930710F420E0A1C020E039E0BC
:101B1000D32EE0917301F09174013081311107C02F
:101B20008FEF9FEF909367018093660190C0E091E3
:101B30007301F09174010580F681E02D0680F78134
:101B4000E02D428153818417950728F45093670153
:101B5000409366017CC0A285B3854481558166812E
:101B60007781EA017D836C8366817781EB015B83FA
:101B70004A83AF014E5F5F4F11960D911C911297F2
:101B80000417150721F412967C936E931197138610
:101B900012863C9131503C93A489B5891097F9F095
:101BA0006685778500891189EB011D830C83008987
:101BB0001189E8017B836A831196ED90FC9012975E
:101BC000BF01645F7F4FE616F70621F412961C935F
:101BD0000E931197158A148A3C9131503C93A68933
:101BE0003091C6013A1710F4A093C601DA9ED001D5
:101BF0001124AE55BE4F11960D90BC91A02DB5830A
:101C0000A48314966D917C911597778366831496BF
:101C10006D917C911597EB015B834A8315965C93DC
:101C20004E93149746894D9DD0011124AE55BE4F59
:101C3000B387A2873C913F5F3C93E091C901F0914B
:101C4000CA013689341708F064CF21E062CFE091F1
:101C5000C901F091CA01E689D9E0ED9FF001112494
:101C6000EE55FE4F8081823008F021E080914201E4
:101C700081110EC00AC080914001909141010196EE
:101C800090934101809340016CC0222309F469C004
:101C900080914301882321F081E08093420161C05B
:101CA00010924201A091C901B091CA01E091C9010D
:101CB000F091CA012D913C918789908D82179307ED
:101CC000A8F08091C9019091CA018091C9019091B9
:101CD000CA01259A2D9A2FEF87EA91E6215080407C
:101CE0009040E1F700C000001D9AF5CF2091C60199
:101CF00089E001C02150422F50E0849FF001859F70
:101D0000F00D1124EE55FE4F9081992399F3A18196
:101D1000B28112966D917C9172836183289FC0017C
:101D200011248B559E4F6817790721F48581968180
:101D30009283818389E0849FF001859FF00D1124B7
:101D4000EE55FE4F0180F281E02D868197819093C0
:101D5000CA018093C9012093C6018091C901909165
:101D6000CA01A091C901B091CA01CD91CDBFDD9149
:101D7000DEBFFF91EF91DF91CF91BF91AF919F9126
:101D80008F917F916F915F914F913F912F911F9113
:101D90000F91FF90EF90DF90CF90BF90AF909F900A
:101DA0008F907F906F905F904F903F902F901F90FB
:101DB0000F900FBE0F900895CF93DF93009751F0CF
:101DC000EC010E948406CE010E941E14DF91CF9187
:101DD0000C945409DF91CF910895CF93DF93CDB741
:101DE000DEB72A970FB6F894DEBF0FBECDBF85E0F1
:101DF000B82ECE0101967C01E0914C01F0914D018D
:101E00001081D12CC12C112329F00580F681E02D01
:101E1000C080D1800E9484060E947A064C01809185
:101E20004501909146018816990608F090C00E94DD
:101E3000A80790924601809245010E945409D7015B
:101E4000EB2D1D92EA95E9F7009162011091630173
:101E50001A86198680E04801F1E18F0E911C0FB6B9
:101E6000F8940F92D8015A96DC905A97DD2009F425
:101E70002FC15C964C915C974423F9F050E0169684
:101E80008D919C911797840F951F17969C938E9315
:101E9000169714962D913C9115978217930738F059
:101EA0008D919C91119717969C938E931697F8019C
:101EB00066817781C7010E94CF14DA94D8015A96BF
:101EC000DC925A9718968C91882339F0C8010896AD
:101ED0000E94D50581110E9494080F900FBEA98021
:101EE000A7FCB2CF0C811D81D8011A968D919C91CF
:101EF000892B21F0C80102960E94D7060E947A061B
:101F00006C018091450190914601C816D90610F4E4
:101F10000E94A807D0924601C0924501EFEFEA0D5A
:101F2000E93008F091CF0E2E000CFF0BE256F04F77
:101F3000D80152968C9152970C94C91421102110FB
:101F400064104C105E102110211064104C109092FF
:101F5000460180924501112351F08C149D0470F0CC
:101F60000E945409B401C6010E947E0768CFE09127
:101F70004A01F0914B0161E08081811160E00091A4
:101F80006201109163010FB6F8940F92D8015D962B
:101F90008C915D978F3F11F45D961C92F801868DB0
:101FA0008F3F09F4168E0F900FBED8015A968C9170
:101FB0005A9781113CC05296ED91FC91A091C901B4
:101FC000B091CA011F96FC93EE931E97A091C90190
:101FD000B091CA018481958151969C938E935097BC
:101FE0008091C9019091CA01A481B5810C96139684
:101FF0009C938E9312978091C9019091CA010C967F
:1020000095838483E091C901F091CA01C80141968A
:10201000958B848BF80181898F5F818BC60188192C
:102020009909662311F08FEF9FEF0E94C607C80140
:102030000E9495060E945409811101CF0E949408C4
:10204000FECE8160F801828B8A809B8064857585D5
:10205000680D791D9401A601C8010E9430078823EC
:1020600009F4F2CED80152968C91529782FF10C09B
:102070001C966D917C91680D791DA601C8010E9486
:102080005A07D8015096ED91FC91C8010995DCCE14
:102090008E7FF801828BF5CF816052968C93529798
:1020A0006A817B811D967C936E931C976C0D7D1DC0
:1020B0009601A601C8010E943007C6CE81FD04C06A
:1020C000C8010E94DC0EC0CE8E7FF801828BBCCE90
:1020D00029853A85232B19F40F900FBE8DCE8111DF
:1020E00009C0809147018E838091640190916501C0
:1020F00098878F830F900FBE0E9484060FB6F894C6
:102100000F92F801858D8F3F09F4158ED8015E96E8
:102110008C915E978F3F11F45E961C920F900FBECC
:10212000BE01675F7F4FCE0106960E94A205811116
:1021300025C0C8010E948A068823D1F0C984DA84A8
:102140006091C9017091CA01645F7F4FC4010E9410
:10215000FA0661E0C6010E94C607C8010E94950602
:102160000E945409811102C00E94940881E077CE38
:10217000C8010E9495060E945409F8CFC8010E9428
:1021800095060E945409C8010E948A06882371F3AB
:1021900033CE00E010E08091440181110CC08091A9
:1021A000A201823010F00E9494080115110599F3E4
:1021B0000E94C601F0CF0FB6F8940F92E091830110
:1021C000F0918401C681D781CE0102960E94D70684
:1021D0008091CB0181508093CB018091440181504B
:1021E000809344010F900FBE8F89988D0E94DC0E62
:1021F000CE010E94DC0ECFCFCF93DF93EC010E9483
:102200008406CE010E948213EC010E94540920979B
:1022100069F4259A2D9A2FEF80E792E021508040B3
:102220009040E1F700C000001D9AF5CFCE01DF918C
:10223000CF9108957F928F929F92AF92BF92CF924B
:10224000DF92EF92FF920F931F93CF93DF93982E1D
:10225000A92E762E872E7A01B22ECA010E94FC107A
:102260006C01892B09F4EDC080E390E00E94FC1022
:10227000EC01892B09F4E2C080E3DE011D928A950E
:10228000E9F7D88ECF8AA70165EA70E0C6010E94FF
:10229000D814B1E0EB1AF108EF89F88DEE0DFF1DAF
:1022A000672D782DCE0149969B01205F3F4FDB01C2
:1022B0004D91BD01DC014D93CD01AB014150510960
:1022C000DA014C91442319F02617370781F718A635
:1022D000BE8AB9A61B861A861D8A1C8AD987C8871A
:1022E00084E090E08B1991099D878C87DB8BCA8BEA
:1022F0009082DF011197AC9211971C92119780E8A0
:102300008C9311971C9257971C9211971C92B3971C
:10231000F983E8830115110519F0F801D183C08311
:102320000FB6F8940F928091CB018F5F8093CB0111
:102330008091C9019091CA01892B09F091C0D09375
:10234000CA01C093C9018091CB01813081F582EA35
:1023500091E00E9456088BEA91E00E94560884EBB7
:1023600091E00E9456088DEB91E00E94560889E9A1
:1023700091E00E94560880E991E00E94560887E8A3
:1023800091E00E9456088EE791E00E94560885E78A
:1023900091E00E94560889E991E09093740180933E
:1023A000730180E991E090937201809371018091B3
:1023B000C7018F5F8093C701AE898091C6018A17DC
:1023C00010F4A093C60129E02A9FD0011124AE5534
:1023D000BE4F11960D90BC91A02DBD83AC83149679
:1023E0008D919C9115979F838E831496ED91FC910E
:1023F0001597CE0102969383828315969C938E93B4
:102400001497EE89E29FF0011124EE55FE4FFB87F1
:10241000EA8780818F5F80830F900FBE8091C80113
:10242000882351F0E091C901F091CA0196898E8903
:10243000981710F40E94940881E004C0C6010E941D
:10244000DC0E8FEFDF91CF911F910F91FF90EF90F6
:10245000DF90CF90BF90AF909F908F907F90089526
:102460008091C8018111A3CFE091C901F091CA0107
:1024700096898E89891708F49ACFD093CA01C093A0
:10248000C90195CF0E94110D1895CF93DF93CDB759
:10249000DEB760970FB6F894DEBF0FBECDBF78945D
:1024A00084B5826084BD84B5816084BD85B5826059
:1024B00085BD85B5816085BD80916E00816080930A
:1024C0006E00109281008091810082608093810073
:1024D0008091810081608093810080918000816083
:1024E000809380008091B10084608093B1008091DE
:1024F000B00081608093B00080917A008460809306
:102500007A0080917A00826080937A0080917A00CC
:10251000816080937A0080917A00806880937A004D
:102520001092C1002091090130910A018FEF98E0CB
:10253000821B930B90930601809305010E94FA037E
:10254000A9E2B1E0FE013196BF018D91819388230C
:1025500021F081E0A933B807C1F708E411E020E0D9
:1025600040EC50E089EC90E10E941A11882309F4B4
:1025700090C0813009F08DC00FB6F8940F92809111
:10258000620190916301892B51F587E591E00E94EA
:1025900056088EE491E00E94560887E591E09093FA
:1025A0004D0180934C018EE491E090934B01809318
:1025B0004A0181E590E00E94FC108C01009759F0DF
:1025C0004F96F801918380838AE0838F85E0848F22
:1025D000C8010E94640810936301009362010F9088
:1025E0000FBE8091620190916301892B09F451C063
:1025F00000E611E023E04CE550E06EE271E08DEE84
:102600009EE00E941A11813009F043C0F8942FEF28
:102610003FEF30936701209366018093C8011092C9
:10262000650110926401A89588E190EC0FB6F894CA
:10263000A895809360000FBE90936000A091C9019F
:10264000B091CA01CD91CDBFDD91DEBFFF91EF9179
:10265000DF91CF91BF91AF919F918F917F916F91BA
:102660005F914F913F912F911F910F91FF90EF90AC
:10267000DF90CF90BF90AF909F908F907F906F90A2
:102680005F904F903F902F901F900F900FBE0F9034
:102690000895809104010E94FA0300E010E0011502
:1026A0001105E9F30E94C601FACFECECF1E01382C8
:1026B000128288EE93E0A0E0B0E084839583A68345
:1026C000B7838FE091E09183808385EC90E09587DC
:1026D000848784EC90E09787868780EC90E0918BEC
:1026E000808B81EC90E0938B828B82EC90E0958BD9
:1026F000848B86EC90E0978B868B118E128E138ED6
:10270000148E08950F931F93CF93DF93823091051A
:1027100010F482E090E0E0916B02F0916C0230E006
:1027200020E0B0E0A0E0309799F42115310509F4DC
:102730004AC0281B390B24303105D8F58A819B818A
:102740006115710589F1FB0193838283FE0111C03C
:10275000408151810281138148175907E0F04817E1
:10276000590799F4109761F012960C9312971396EB
:102770001C933296CF01DF91CF911F910F91089555
:1027800000936B0210936C02F4CF2115310551F0C8
:102790004217530738F0A901DB019A01BD01DF019F
:1027A000F801C1CFEF01F9CF90936C0280936B02D7
:1027B000CDCFFE01E20FF31F819391932250310997
:1027C00039832883D7CF2091690230916A02232B65
:1027D00041F4209107013091080130936A0220935F
:1027E000690220910501309106012115310541F45E
:1027F0002DB73EB74091090150910A01241B350BBA
:10280000E0916902F0916A02E217F307A0F42E1B2F
:102810003F0B2817390778F0AC014E5F5F4F241744
:10282000350748F04E0F5F1F50936A0240936902CC
:10283000819391939FCFF0E0E0E09CCFCF93DF9323
:102840000097E9F0FC01329713821282A0916B028B
:10285000B0916C02ED0130E020E01097A1F42081EE
:102860003181820F931F2091690230916A022817EB
:10287000390709F061C0F0936A02E0936902DF91C1
:10288000CF910895EA01CE17DF07E8F54A815B8111
:102890009E0141155105B1F7E901FB83EA83499196
:1028A0005991C40FD51FEC17FD0761F48081918108
:1028B0000296840F951FE901998388838281938111
:1028C0009B838A83F0E0E0E012968D919C911397B0
:1028D0000097B9F52D913C911197CD010296820F89
:1028E000931F2091690230916A022817390739F63F
:1028F000309751F510926C0210926B02B0936A02FD
:10290000A0936902BCCFD383C28340815181840FDD
:10291000951FC817D90761F44E5F5F4F8881998171
:10292000480F591F518340838A819B8193838283FF
:102930002115310509F0B0CFF0936C02E0936B02E2
:102940009ECFFD01DC01C0CF13821282D7CFA1E25E
:102950001A2EAA1BBB1BFD010DC0AA1FBB1FEE1F19
:10296000FF1FA217B307E407F50720F0A21BB30B64
:10297000E40BF50B661F771F881F991F1A9469F7E0
:1029800060957095809590959B01AC01BD01CF013C
:102990000895EE0FFF1F0590F491E02D0994FB01BF
:1029A000DC0102C001900D9241505040D8F70895CB
:1029B000DC0101C06D9341505040E0F70895F89458
:0229C000FFCF47
:1029C200510151010300006D02800000000000F57A
:1029D2000152017F015D02B0018E01A2010D0A00C8
:1029E2004374726C004D6F6E0049444C4500546D47
:0629F20072205376630021
:00000001FF
